:100000000A128A11F22F00308A000408840A82073B
:1000100000342E342E342E342E344334683461347C
:100020007234673469346E3467342E342E342E348F
:100030002E34003454347234613463346B34693494
:100040006E34673420344D346F3474346F3472340A
:1000500020343134003454347234613463346B34BA
:1000600069346E34673420344D346F3474346F34F3
:080070007234203432340034F4
:100C22001F139F1783161F179F171F109F101F1147
:100C32009F1583129F111F129F129F111F129F1641
:100C42009F151F129F169F111F169F161F151F1407
:100C52000800F300F200F20DF20DF20D83121F08EC
:100C62007206C73972069F00C730F200382EF20BA7
:100C7200372E3B2E3C2E831203131F141F151F19F0
:100C8200402E1E08F100F00183161E08F00703181B
:100C9200F10A08008316860183128601FF3083164B
:100CA200850088010A128A1176270A128A110A120D
:100CB2008A1111260A128A1100300A128A112A2672
:100CC2000A128A117108FC007008FB0001300A1236
:100CD2008A112A260A128A117108FA007008F9008C
:100CE20006300A128A112A260A128A117108831200
:100CF200A3007008A20005300A128A112A260A12DD
:100D02008A1171088312A1007008A0007B087C047C
:100D12000319C62E79087A040319C62E7C087A02B2
:100D2200031D952E7B08790203189A2E061486104D
:100D3200A42E7A087C02031DA02E79087B020318D8
:100D4200AE2E061086140130F401F40A0A128A113A
:100D52005B270A128A111230C12E7A087C06031D03
:100D6200B42E79087B06031DC62E061086100130AC
:100D7200F401F40A0A128A115B270A128A1101305D
:100D82000A128A1119270A128A1122082304031946
:100D92005D2E2008210403195D2E23082102031D64
:100DA200D42E220820020318E72E061586110230DF
:100DB200F401F40A0A128A115B270A128A112330FB
:100DC2000A128A1119270A128A115D2E210823029A
:100DD200031DED2E200822020318002F061186158E
:100DE2000230F401F40A0A128A115B270A128A11EC
:100DF20023300A128A1119270A128A115D2E21083C
:100E02002306031D062F20082206031D5D2E061150
:100E120086110230F401F40A0A128A115B270A12BF
:100E22008A1101300A128A1119270A128A115D2EBB
:100E3200F700F501F6017508770784000A128A1196
:100E420003200A128A11003A03190800750877076D
:100E520084000A128A1103200A128A1136270A1202
:100E62008A11F50A0319F60A1C2FF400F2000F305A
:100E7200F2057408F300F030F3050815730E0F390C
:100E8200D0270A128A1188151A30F100F10B472F68
:100E920000008312031388117208D0270A128A11E4
:100EA20088151A30F100F10B542F0000831203133E
:100EB20088110800F500750B682F74087F3EE8273B
:100EC2000A128A11BA270A128A117708BA2F023037
:100ED2007506031D08007408BF3EE8270A128A112E
:100EE200BA270A128A117708BA2F0030D0270A12BD
:100EF2008A113430F500F130F400F40B7E2FF50B3B
:100F02007E2F832F0330BA270A128A110D30F50083
:100F1200FB30F400F40B8B2FF50B8B2F902F03304B
:100F2200BA270A128A111D30F5009130F400F40B31
:100F3200982FF50B982F0330BA270A128A11023024
:100F4200BA270A128A110230BA270A128A11083005
:100F5200BA270A128A110030BA270A128A110C30F3
:100F6200BA270A128A110030BA270A128A110630E9
:100F7200BA2FF3008312031308117308D0270A1241
:100F82008A1188150B30F2006230F100F10BC72F85
:100F9200F20BC72F00008312031388110800F00020
:100FA200701CD62F83120816D82F83120812F01C39
:100FB200DC2F8816DD2F8812701DE12F0817E22F13
:100FC2000813F01DE62F8817080088130800F800A0
:100FD200780E0F39F6007808F7000F30F70576081B
:100FE2000800F901FA01FB01FC0183120313A001BD
:0E0FF200A101A201A30183010A128A114B2E54
:02400E007A3FF7
:00000001FF
